{
  "contractName": "Supplychain",
  "abi": [
    {
      "inputs": [],
      "payable": false,
      "stateMutability": "nonpayable",
      "type": "constructor"
    },
    {
      "constant": true,
      "inputs": [
        {
          "internalType": "address",
          "name": "",
          "type": "address"
        }
      ],
      "name": "PartnerAddressList",
      "outputs": [
        {
          "internalType": "bytes32",
          "name": "_partnerName",
          "type": "bytes32"
        },
        {
          "internalType": "bytes32",
          "name": "_partnerLocation",
          "type": "bytes32"
        },
        {
          "internalType": "bytes32",
          "name": "_roles",
          "type": "bytes32"
        },
        {
          "internalType": "bytes32",
          "name": "_partnerStage",
          "type": "bytes32"
        },
        {
          "internalType": "bytes32",
          "name": "_partnerHandle",
          "type": "bytes32"
        },
        {
          "internalType": "address",
          "name": "_partnerAddress",
          "type": "address"
        }
      ],
      "payable": false,
      "stateMutability": "view",
      "type": "function"
    },
    {
      "constant": true,
      "inputs": [
        {
          "internalType": "uint256",
          "name": "",
          "type": "uint256"
        }
      ],
      "name": "ProductIdList",
      "outputs": [
        {
          "internalType": "uint256",
          "name": "_productId",
          "type": "uint256"
        },
        {
          "internalType": "bytes32",
          "name": "_productName",
          "type": "bytes32"
        }
      ],
      "payable": false,
      "stateMutability": "view",
      "type": "function"
    },
    {
      "constant": true,
      "inputs": [],
      "name": "manufacturer",
      "outputs": [
        {
          "internalType": "address",
          "name": "",
          "type": "address"
        }
      ],
      "payable": false,
      "stateMutability": "view",
      "type": "function"
    },
    {
      "constant": true,
      "inputs": [
        {
          "internalType": "uint256",
          "name": "",
          "type": "uint256"
        }
      ],
      "name": "mfg",
      "outputs": [
        {
          "internalType": "bytes32",
          "name": "_mfgName",
          "type": "bytes32"
        },
        {
          "internalType": "bytes32",
          "name": "_mfgLocation",
          "type": "bytes32"
        },
        {
          "internalType": "address",
          "name": "_mfgAddress",
          "type": "address"
        }
      ],
      "payable": false,
      "stateMutability": "view",
      "type": "function"
    },
    {
      "constant": true,
      "inputs": [
        {
          "internalType": "uint256",
          "name": "",
          "type": "uint256"
        }
      ],
      "name": "partner",
      "outputs": [
        {
          "internalType": "bytes32",
          "name": "_partnerName",
          "type": "bytes32"
        },
        {
          "internalType": "bytes32",
          "name": "_partnerLocation",
          "type": "bytes32"
        },
        {
          "internalType": "bytes32",
          "name": "_roles",
          "type": "bytes32"
        },
        {
          "internalType": "bytes32",
          "name": "_partnerStage",
          "type": "bytes32"
        },
        {
          "internalType": "bytes32",
          "name": "_partnerHandle",
          "type": "bytes32"
        },
        {
          "internalType": "address",
          "name": "_partnerAddress",
          "type": "address"
        }
      ],
      "payable": false,
      "stateMutability": "view",
      "type": "function"
    },
    {
      "constant": true,
      "inputs": [
        {
          "internalType": "uint256",
          "name": "",
          "type": "uint256"
        }
      ],
      "name": "product",
      "outputs": [
        {
          "internalType": "uint256",
          "name": "_productId",
          "type": "uint256"
        },
        {
          "internalType": "bytes32",
          "name": "_productName",
          "type": "bytes32"
        }
      ],
      "payable": false,
      "stateMutability": "view",
      "type": "function"
    },
    {
      "constant": false,
      "inputs": [
        {
          "internalType": "bytes32",
          "name": "_mfgName",
          "type": "bytes32"
        },
        {
          "internalType": "bytes32",
          "name": "_mfgLocation",
          "type": "bytes32"
        },
        {
          "internalType": "address",
          "name": "_mfgAddress",
          "type": "address"
        }
      ],
      "name": "addManufacturer",
      "outputs": [],
      "payable": false,
      "stateMutability": "nonpayable",
      "type": "function"
    },
    {
      "constant": true,
      "inputs": [
        {
          "internalType": "address",
          "name": "verifyMfgAddress",
          "type": "address"
        }
      ],
      "name": "verifyManufacturer",
      "outputs": [
        {
          "internalType": "bytes32",
          "name": "_mfgName",
          "type": "bytes32"
        },
        {
          "internalType": "bytes32",
          "name": "_mfgLocation",
          "type": "bytes32"
        },
        {
          "internalType": "address",
          "name": "_mfgAddress",
          "type": "address"
        }
      ],
      "payable": false,
      "stateMutability": "view",
      "type": "function"
    },
    {
      "constant": false,
      "inputs": [
        {
          "internalType": "bytes32",
          "name": "_partnerName",
          "type": "bytes32"
        },
        {
          "internalType": "bytes32",
          "name": "_partnerLocation",
          "type": "bytes32"
        },
        {
          "internalType": "bytes32",
          "name": "_roles",
          "type": "bytes32"
        },
        {
          "internalType": "bytes32",
          "name": "_partnerStage",
          "type": "bytes32"
        },
        {
          "internalType": "bytes32",
          "name": "_partnerHandle",
          "type": "bytes32"
        },
        {
          "internalType": "address",
          "name": "_partnerAddress",
          "type": "address"
        }
      ],
      "name": "addPartner",
      "outputs": [],
      "payable": false,
      "stateMutability": "nonpayable",
      "type": "function"
    },
    {
      "constant": true,
      "inputs": [
        {
          "internalType": "address",
          "name": "verifyPartnerAddress",
          "type": "address"
        }
      ],
      "name": "verifyPartner",
      "outputs": [
        {
          "internalType": "bytes32",
          "name": "_partnerName",
          "type": "bytes32"
        },
        {
          "internalType": "bytes32",
          "name": "_partnerLocation",
          "type": "bytes32"
        },
        {
          "internalType": "bytes32",
          "name": "_roles",
          "type": "bytes32"
        },
        {
          "internalType": "bytes32",
          "name": "_partnerStage",
          "type": "bytes32"
        },
        {
          "internalType": "bytes32",
          "name": "_partnerHandle",
          "type": "bytes32"
        },
        {
          "internalType": "address",
          "name": "_partnerAddress",
          "type": "address"
        }
      ],
      "payable": false,
      "stateMutability": "view",
      "type": "function"
    },
    {
      "constant": true,
      "inputs": [],
      "name": "getAllPartners",
      "outputs": [
        {
          "internalType": "bytes32[]",
          "name": "",
          "type": "bytes32[]"
        },
        {
          "internalType": "bytes32[]",
          "name": "",
          "type": "bytes32[]"
        },
        {
          "internalType": "bytes32[]",
          "name": "",
          "type": "bytes32[]"
        },
        {
          "internalType": "bytes32[]",
          "name": "",
          "type": "bytes32[]"
        },
        {
          "internalType": "bytes32[]",
          "name": "",
          "type": "bytes32[]"
        },
        {
          "internalType": "address[]",
          "name": "",
          "type": "address[]"
        }
      ],
      "payable": false,
      "stateMutability": "view",
      "type": "function"
    },
    {
      "constant": false,
      "inputs": [
        {
          "internalType": "bytes32",
          "name": "_partnerName",
          "type": "bytes32"
        },
        {
          "internalType": "bytes32",
          "name": "_partnerLocation",
          "type": "bytes32"
        },
        {
          "internalType": "bytes32",
          "name": "_roles",
          "type": "bytes32"
        },
        {
          "internalType": "bytes32",
          "name": "_partnerStage",
          "type": "bytes32"
        },
        {
          "internalType": "bytes32",
          "name": "_partnerHandle",
          "type": "bytes32"
        },
        {
          "internalType": "address",
          "name": "_partnerAddress",
          "type": "address"
        }
      ],
      "name": "editPartner",
      "outputs": [],
      "payable": false,
      "stateMutability": "nonpayable",
      "type": "function"
    },
    {
      "constant": false,
      "inputs": [
        {
          "internalType": "bytes32",
          "name": "_productName",
          "type": "bytes32"
        },
        {
          "internalType": "bytes32[]",
          "name": "_productState",
          "type": "bytes32[]"
        },
        {
          "internalType": "bytes32[]",
          "name": "_productTimeStamp",
          "type": "bytes32[]"
        },
        {
          "internalType": "address[]",
          "name": "_partnerAddress",
          "type": "address[]"
        },
        {
          "internalType": "bytes32[]",
          "name": "_productHandle",
          "type": "bytes32[]"
        }
      ],
      "name": "addProduct",
      "outputs": [],
      "payable": false,
      "stateMutability": "nonpayable",
      "type": "function"
    },
    {
      "constant": true,
      "inputs": [
        {
          "internalType": "uint256",
          "name": "verifyProductId",
          "type": "uint256"
        }
      ],
      "name": "verifyProduct",
      "outputs": [
        {
          "internalType": "bytes32",
          "name": "_productName",
          "type": "bytes32"
        },
        {
          "internalType": "bytes32[]",
          "name": "_productState",
          "type": "bytes32[]"
        },
        {
          "internalType": "bytes32[]",
          "name": "_productTimeStamp",
          "type": "bytes32[]"
        },
        {
          "internalType": "address[]",
          "name": "_partnerAddress",
          "type": "address[]"
        },
        {
          "internalType": "bytes32[]",
          "name": "_productHandle",
          "type": "bytes32[]"
        }
      ],
      "payable": false,
      "stateMutability": "view",
      "type": "function"
    },
    {
      "constant": false,
      "inputs": [
        {
          "internalType": "uint256",
          "name": "_productId",
          "type": "uint256"
        },
        {
          "internalType": "bytes32",
          "name": "_productName",
          "type": "bytes32"
        },
        {
          "internalType": "bytes32",
          "name": "_productState",
          "type": "bytes32"
        },
        {
          "internalType": "bytes32",
          "name": "_productTimeStamp",
          "type": "bytes32"
        },
        {
          "internalType": "address",
          "name": "_partnerAddress",
          "type": "address"
        },
        {
          "internalType": "bytes32",
          "name": "_productHandle",
          "type": "bytes32"
        }
      ],
      "name": "updateProduct",
      "outputs": [],
      "payable": false,
      "stateMutability": "nonpayable",
      "type": "function"
    }
  ],
  "bytecode": "0x608060405234801561001057600080fd5b50336000806101000a81548173ffffffffffffffffffffffffffffffffffffffff021916908373ffffffffffffffffffffffffffffffffffffffff1602179055506103e860018190555061224e806100696000396000f3fe608060405234801561001057600080fd5b50600436106100f55760003560e01c8063780bd3f111610097578063d3e83a0811610066578063d3e83a08146108fd578063d5b4b99814610ac4578063d64a3d8b14610b1c578063dfcfb0a114610bae576100f5565b8063780bd3f1146104fe5780638e9e504b14610547578063a05b9b17146105d8578063d16e2beb14610856576100f5565b8063579bf782116100d3578063579bf7821461034e5780636020a2bc146103f557806363b999061461043e57806374754282146104b4576100f5565b80630d18caf7146100fa5780632e8a46be14610176578063524e8462146101ec575b600080fd5b6101266004803603602081101561011057600080fd5b8101908080359060200190929190505050610c24565b604051808481526020018381526020018273ffffffffffffffffffffffffffffffffffffffff1673ffffffffffffffffffffffffffffffffffffffff168152602001935050505060405180910390f35b6101ea600480360360c081101561018c57600080fd5b810190808035906020019092919080359060200190929190803590602001909291908035906020019092919080359060200190929190803573ffffffffffffffffffffffffffffffffffffffff169060200190929190505050610c7b565b005b6102186004803603602081101561020257600080fd5b8101908080359060200190929190505050610e90565b6040518086815260200180602001806020018060200180602001858103855289818151815260200191508051906020019060200280838360005b8381101561026d578082015181840152602081019050610252565b50505050905001858103845288818151815260200191508051906020019060200280838360005b838110156102af578082015181840152602081019050610294565b50505050905001858103835287818151815260200191508051906020019060200280838360005b838110156102f15780820151818401526020810190506102d6565b50505050905001858103825286818151815260200191508051906020019060200280838360005b83811015610333578082015181840152602081019050610318565b50505050905001995050505050505050505060405180910390f35b6103906004803603602081101561036457600080fd5b81019080803573ffffffffffffffffffffffffffffffffffffffff1690602001909291905050506110bc565b604051808781526020018681526020018581526020018481526020018381526020018273ffffffffffffffffffffffffffffffffffffffff1673ffffffffffffffffffffffffffffffffffffffff168152602001965050505050505060405180910390f35b6104216004803603602081101561040b57600080fd5b810190808035906020019092919050505061124b565b604051808381526020018281526020019250505060405180910390f35b6104b2600480360360c081101561045457600080fd5b810190808035906020019092919080359060200190929190803590602001909291908035906020019092919080359060200190929190803573ffffffffffffffffffffffffffffffffffffffff16906020019092919050505061126f565b005b6104bc61146d565b604051808273ffffffffffffffffffffffffffffffffffffffff1673ffffffffffffffffffffffffffffffffffffffff16815260200191505060405180910390f35b61052a6004803603602081101561051457600080fd5b8101908080359060200190929190505050611492565b604051808381526020018281526020019250505060405180910390f35b6105736004803603602081101561055d57600080fd5b81019080803590602001909291905050506114c3565b604051808781526020018681526020018581526020018481526020018381526020018273ffffffffffffffffffffffffffffffffffffffff1673ffffffffffffffffffffffffffffffffffffffff168152602001965050505050505060405180910390f35b610854600480360360a08110156105ee57600080fd5b81019080803590602001909291908035906020019064010000000081111561061557600080fd5b82018360208201111561062757600080fd5b8035906020019184602083028401116401000000008311171561064957600080fd5b919080806020026020016040519081016040528093929190818152602001838360200280828437600081840152601f19601f820116905080830192505050505050509192919290803590602001906401000000008111156106a957600080fd5b8201836020820111156106bb57600080fd5b803590602001918460208302840111640100000000831117156106dd57600080fd5b919080806020026020016040519081016040528093929190818152602001838360200280828437600081840152601f19601f8201169050808301925050505050505091929192908035906020019064010000000081111561073d57600080fd5b82018360208201111561074f57600080fd5b8035906020019184602083028401116401000000008311171561077157600080fd5b919080806020026020016040519081016040528093929190818152602001838360200280828437600081840152601f19601f820116905080830192505050505050509192919290803590602001906401000000008111156107d157600080fd5b8201836020820111156107e357600080fd5b8035906020019184602083028401116401000000008311171561080557600080fd5b919080806020026020016040519081016040528093929190818152602001838360200280828437600081840152601f19601f82011690508083019250505050505050919291929050505061152c565b005b6108986004803603602081101561086c57600080fd5b81019080803573ffffffffffffffffffffffffffffffffffffffff169060200190929190505050611732565b604051808781526020018681526020018581526020018481526020018381526020018273ffffffffffffffffffffffffffffffffffffffff1673ffffffffffffffffffffffffffffffffffffffff168152602001965050505050505060405180910390f35b61090561178e565b6040518080602001806020018060200180602001806020018060200187810387528d818151815260200191508051906020019060200280838360005b8381101561095c578082015181840152602081019050610941565b5050505090500187810386528c818151815260200191508051906020019060200280838360005b8381101561099e578082015181840152602081019050610983565b5050505090500187810385528b818151815260200191508051906020019060200280838360005b838110156109e05780820151818401526020810190506109c5565b5050505090500187810384528a818151815260200191508051906020019060200280838360005b83811015610a22578082015181840152602081019050610a07565b50505050905001878103835289818151815260200191508051906020019060200280838360005b83811015610a64578082015181840152602081019050610a49565b50505050905001878103825288818151815260200191508051906020019060200280838360005b83811015610aa6578082015181840152602081019050610a8b565b505050509050019c5050505050505050505050505060405180910390f35b610b1a60048036036060811015610ada57600080fd5b810190808035906020019092919080359060200190929190803573ffffffffffffffffffffffffffffffffffffffff169060200190929190505050611ac6565b005b610b5e60048036036020811015610b3257600080fd5b81019080803573ffffffffffffffffffffffffffffffffffffffff169060200190929190505050611c8a565b604051808481526020018381526020018273ffffffffffffffffffffffffffffffffffffffff1673ffffffffffffffffffffffffffffffffffffffff168152602001935050505060405180910390f35b610c22600480360360c0811015610bc457600080fd5b8101908080359060200190929190803590602001909291908035906020019092919080359060200190929190803573ffffffffffffffffffffffffffffffffffffffff16906020019092919080359060200190929190505050611daf565b005b60028181548110610c3157fe5b90600052602060002090600302016000915090508060000154908060010154908060020160009054906101000a900473ffffffffffffffffffffffffffffffffffffffff16905083565b6000809054906101000a900473ffffffffffffffffffffffffffffffffffffffff1673ffffffffffffffffffffffffffffffffffffffff163373ffffffffffffffffffffffffffffffffffffffff1614610cd457600080fd5b610cdc612009565b6040518060c001604052808881526020018781526020018681526020018581526020018481526020018373ffffffffffffffffffffffffffffffffffffffff16815250905060048190806001815401808255809150509060018203906000526020600020906006020160009091929091909150600082015181600001556020820151816001015560408201518160020155606082015181600301556080820151816004015560a08201518160050160006101000a81548173ffffffffffffffffffffffffffffffffffffffff021916908373ffffffffffffffffffffffffffffffffffffffff16021790555050505080600560008473ffffffffffffffffffffffffffffffffffffffff1673ffffffffffffffffffffffffffffffffffffffff168152602001908152602001600020600082015181600001556020820151816001015560408201518160020155606082015181600301556080820151816004015560a08201518160050160006101000a81548173ffffffffffffffffffffffffffffffffffffffff021916908373ffffffffffffffffffffffffffffffffffffffff16021790555090505050505050505050565b600060608060608085600760008881526020019081526020016000206000015414156110b25760076000878152602001908152602001600020600101546007600088815260200190815260200160002060020160076000898152602001908152602001600020600301600760008a8152602001908152602001600020600401600760008b815260200190815260200160002060050183805480602002602001604051908101604052809291908181526020018280548015610f7057602002820191906000526020600020905b815481526020019060010190808311610f5c575b5050505050935082805480602002602001604051908101604052809291908181526020018280548015610fc257602002820191906000526020600020905b815481526020019060010190808311610fae575b505050505092508180548060200260200160405190810160405280929190818152602001828054801561104a57602002820191906000526020600020905b8160009054906101000a900473ffffffffffffffffffffffffffffffffffffffff1673ffffffffffffffffffffffffffffffffffffffff1681526020019060010190808311611000575b505050505091508080548060200260200160405190810160405280929190818152602001828054801561109c57602002820191906000526020600020905b815481526020019060010190808311611088575b50505050509050945094509450945094506110b3565b5b91939590929450565b60008060008060008060005b600480549050811015611240578773ffffffffffffffffffffffffffffffffffffffff16600482815481106110f957fe5b906000526020600020906006020160050160009054906101000a900473ffffffffffffffffffffffffffffffffffffffff1673ffffffffffffffffffffffffffffffffffffffff161415611233576004818154811061115457fe5b9060005260206000209060060201600001546004828154811061117357fe5b9060005260206000209060060201600101546004838154811061119257fe5b906000526020600020906006020160020154600484815481106111b157fe5b906000526020600020906006020160030154600485815481106111d057fe5b906000526020600020906006020160040154600486815481106111ef57fe5b906000526020600020906006020160050160009054906101000a900473ffffffffffffffffffffffffffffffffffffffff1696509650965096509650965050611242565b80806001019150506110c8565b505b91939550919395565b60076020528060005260406000206000915090508060000154908060010154905082565b6000809054906101000a900473ffffffffffffffffffffffffffffffffffffffff1673ffffffffffffffffffffffffffffffffffffffff163373ffffffffffffffffffffffffffffffffffffffff16146112c857600080fd5b60005b600480549050811015611464578173ffffffffffffffffffffffffffffffffffffffff16600482815481106112fc57fe5b906000526020600020906006020160050160009054906101000a900473ffffffffffffffffffffffffffffffffffffffff1673ffffffffffffffffffffffffffffffffffffffff16141561145757866004828154811061135857fe5b906000526020600020906006020160000181905550856004828154811061137b57fe5b906000526020600020906006020160010181905550846004828154811061139e57fe5b90600052602060002090600602016002018190555083600482815481106113c157fe5b90600052602060002090600602016003018190555082600482815481106113e457fe5b906000526020600020906006020160040181905550816004828154811061140757fe5b906000526020600020906006020160050160006101000a81548173ffffffffffffffffffffffffffffffffffffffff021916908373ffffffffffffffffffffffffffffffffffffffff1602179055505b80806001019150506112cb565b50505050505050565b6000809054906101000a900473ffffffffffffffffffffffffffffffffffffffff1681565b6006818154811061149f57fe5b90600052602060002090600602016000915090508060000154908060010154905082565b600481815481106114d057fe5b90600052602060002090600602016000915090508060000154908060010154908060020154908060030154908060040154908060050160009054906101000a900473ffffffffffffffffffffffffffffffffffffffff16905086565b6000809054906101000a900473ffffffffffffffffffffffffffffffffffffffff1673ffffffffffffffffffffffffffffffffffffffff163373ffffffffffffffffffffffffffffffffffffffff161461158557600080fd5b6000600160008154809291906001019190505590506115a2612064565b6040518060c00160405280838152602001888152602001878152602001868152602001858152602001848152509050600681908060018154018082558091505090600182039060005260206000209060060201600090919290919091506000820151816000015560208201518160010155604082015181600201908051906020019061162f92919061209d565b50606082015181600301908051906020019061164c92919061209d565b5060808201518160040190805190602001906116699291906120ea565b5060a082015181600501908051906020019061168692919061209d565b505050508060076000848152602001908152602001600020600082015181600001556020820151816001015560408201518160020190805190602001906116ce92919061209d565b5060608201518160030190805190602001906116eb92919061209d565b5060808201518160040190805190602001906117089291906120ea565b5060a082015181600501908051906020019061172592919061209d565b5090505050505050505050565b60056020528060005260406000206000915090508060000154908060010154908060020154908060030154908060040154908060050160009054906101000a900473ffffffffffffffffffffffffffffffffffffffff16905086565b60608060608060608060606004805490506040519080825280602002602001820160405280156117cd5781602001602082028038833980820191505090505b50905060606004805490506040519080825280602002602001820160405280156118065781602001602082028038833980820191505090505b509050606060048054905060405190808252806020026020018201604052801561183f5781602001602082028038833980820191505090505b50905060606004805490506040519080825280602002602001820160405280156118785781602001602082028038833980820191505090505b50905060606004805490506040519080825280602002602001820160405280156118b15781602001602082028038833980820191505090505b50905060606004805490506040519080825280602002602001820160405280156118ea5781602001602082028038833980820191505090505b50905060008090505b600480549050811015611aa5576004818154811061190d57fe5b90600052602060002090600602016000015487828151811061192b57fe5b6020026020010181815250506004818154811061194457fe5b90600052602060002090600602016001015486828151811061196257fe5b6020026020010181815250506004818154811061197b57fe5b90600052602060002090600602016002015485828151811061199957fe5b602002602001018181525050600481815481106119b257fe5b9060005260206000209060060201600301548482815181106119d057fe5b602002602001018181525050600481815481106119e957fe5b906000526020600020906006020160040154838281518110611a0757fe5b60200260200101818152505060048181548110611a2057fe5b906000526020600020906006020160050160009054906101000a900473ffffffffffffffffffffffffffffffffffffffff16828281518110611a5e57fe5b602002602001019073ffffffffffffffffffffffffffffffffffffffff16908173ffffffffffffffffffffffffffffffffffffffff168152505080806001019150506118f3565b508585858585859b509b509b509b509b509b50505050505050909192939495565b6000809054906101000a900473ffffffffffffffffffffffffffffffffffffffff1673ffffffffffffffffffffffffffffffffffffffff163373ffffffffffffffffffffffffffffffffffffffff1614611b1f57600080fd5b611b27612174565b60405180606001604052808581526020018481526020018373ffffffffffffffffffffffffffffffffffffffff16815250905060028190806001815401808255809150509060018203906000526020600020906003020160009091929091909150600082015181600001556020820151816001015560408201518160020160006101000a81548173ffffffffffffffffffffffffffffffffffffffff021916908373ffffffffffffffffffffffffffffffffffffffff16021790555050505080600360008473ffffffffffffffffffffffffffffffffffffffff1673ffffffffffffffffffffffffffffffffffffffff168152602001908152602001600020600082015181600001556020820151816001015560408201518160020160006101000a81548173ffffffffffffffffffffffffffffffffffffffff021916908373ffffffffffffffffffffffffffffffffffffffff16021790555090505050505050565b6000806000805b600280549050811015611da6578473ffffffffffffffffffffffffffffffffffffffff1660028281548110611cc257fe5b906000526020600020906003020160020160009054906101000a900473ffffffffffffffffffffffffffffffffffffffff1673ffffffffffffffffffffffffffffffffffffffff161415611d995760028181548110611d1d57fe5b90600052602060002090600302016000015460028281548110611d3c57fe5b90600052602060002090600302016001015460028381548110611d5b57fe5b906000526020600020906003020160020160009054906101000a900473ffffffffffffffffffffffffffffffffffffffff1693509350935050611da8565b8080600101915050611c91565b505b9193909250565b60005b600480549050811015612000573373ffffffffffffffffffffffffffffffffffffffff1660048281548110611de357fe5b906000526020600020906006020160050160009054906101000a900473ffffffffffffffffffffffffffffffffffffffff1673ffffffffffffffffffffffffffffffffffffffff1614611e9e576040517f08c379a000000000000000000000000000000000000000000000000000000000815260040180806020018281038252600d8152602001807f556e417574686f7572697a65640000000000000000000000000000000000000081525060200191505060405180910390fd5b8560076000898152602001908152602001600020600101819055506007600088815260200190815260200160002060020185908060018154018082558091505090600182039060005260206000200160009091929091909150555060076000888152602001908152602001600020600301849080600181540180825580915050906001820390600052602060002001600090919290919091505550600760008881526020019081526020016000206004018390806001815401808255809150509060018203906000526020600020016000909192909190916101000a81548173ffffffffffffffffffffffffffffffffffffffff021916908373ffffffffffffffffffffffffffffffffffffffff16021790555050600760008881526020019081526020016000206005018290806001815401808255809150509060018203906000526020600020016000909192909190915055508080600101915050611db2565b50505050505050565b6040518060c001604052806000801916815260200160008019168152602001600080191681526020016000801916815260200160008019168152602001600073ffffffffffffffffffffffffffffffffffffffff1681525090565b6040518060c001604052806000815260200160008019168152602001606081526020016060815260200160608152602001606081525090565b8280548282559060005260206000209081019282156120d9579160200282015b828111156120d85782518255916020019190600101906120bd565b5b5090506120e691906121b1565b5090565b828054828255906000526020600020908101928215612163579160200282015b828111156121625782518260006101000a81548173ffffffffffffffffffffffffffffffffffffffff021916908373ffffffffffffffffffffffffffffffffffffffff1602179055509160200191906001019061210a565b5b50905061217091906121d6565b5090565b60405180606001604052806000801916815260200160008019168152602001600073ffffffffffffffffffffffffffffffffffffffff1681525090565b6121d391905b808211156121cf5760008160009055506001016121b7565b5090565b90565b61221691905b8082111561221257600081816101000a81549073ffffffffffffffffffffffffffffffffffffffff0219169055506001016121dc565b5090565b9056fea265627a7a72315820e77445af79a6d18a9eee4257c5d73869f837a16e86879759f8b503e5892aea4264736f6c63430005100032",
  "source": "pragma solidity 0.5.16;\r\n\r\n/* This is contract of Supplychain */\r\ncontract Supplychain{\r\n    address public manufacturer; /* declare manufacturer address  */\r\n    uint256 productUniqueId; /* declare productUniqueId*/\r\n    \r\n    constructor() public{\r\n        manufacturer = msg.sender; /* assign manufacturer into msg.sender */\r\n        productUniqueId = 1000; /* initiate productUniqueId */\r\n    }\r\n    /*restrict onlyManufacturer for adding manufacturer */\r\n    modifier onlyManufacturer(){\r\n        require(msg.sender==manufacturer);\r\n        _;\r\n    }\r\n    /*restrict onlyPartners for updating partners details */\r\n    modifier onlyPartners(){\r\n        for(uint i;i<partner.length;i++) {\r\n            require(partner[i]._partnerAddress==msg.sender, \"UnAuthourized\");\r\n            _;\r\n        }\r\n    }\r\n    /*struct manufacturer*/\r\n    struct Mfg{\r\n        bytes32 _mfgName;\r\n        bytes32 _mfgLocation;\r\n        address _mfgAddress;\r\n    }\r\n\r\n    Mfg[] public mfg;\r\n    mapping(address=>Mfg) ManufacturerAddressList;\r\n    \r\n    /*struct pantner*/\r\n    struct Partner{\r\n        bytes32 _partnerName;\r\n        bytes32 _partnerLocation;\r\n        bytes32 _roles;\r\n        bytes32 _partnerStage;//supplier=2,assemblier(manufacturer)=3,distributor=4,retailor=5\r\n        bytes32 _partnerHandle;//screen,battery,motherboard,assemblier,distributor,retailor\r\n        address _partnerAddress;\r\n    }\r\n\r\n    Partner[] public partner;\r\n    mapping(address => Partner) public PartnerAddressList;\r\n    \r\n    /*struct product*/\r\n    struct Product{\r\n        uint256 _productId;\r\n        bytes32 _productName;\r\n        bytes32[] _productState; // initiate-1,rawmatrial-2, assembler-3,distributor-4,retailor-5\r\n        bytes32[] _productTimeStamp;//when\r\n        address[] _partnerAddress;//who\r\n        bytes32[] _productHandle;\r\n    }\r\n    \r\n    Product[] public product;\r\n    mapping(uint256 =>Product) public ProductIdList;\r\n\r\n    /*adding Manufacturer Details -- only Manufacturer will add Manufacturer details*/\r\n    function addManufacturer(bytes32 _mfgName,bytes32 _mfgLocation,address _mfgAddress) public onlyManufacturer(){\r\n        Mfg memory _mfg = Mfg(_mfgName,_mfgLocation,_mfgAddress);\r\n        mfg.push(_mfg);\r\n        ManufacturerAddressList[_mfgAddress]= _mfg;\r\n    }\r\n    /*verify Manufacturer Details */\r\n    function verifyManufacturer(address verifyMfgAddress)public view returns(bytes32 _mfgName,bytes32 _mfgLocation,address _mfgAddress){\r\n        for(uint i;i<mfg.length;i++){\r\n            if(mfg[i]._mfgAddress == verifyMfgAddress){\r\n                return(mfg[i]._mfgName,mfg[i]._mfgLocation,mfg[i]._mfgAddress);\r\n            }\r\n        }\r\n    }\r\n    /*Add partners Details -- only Manufacturer will add partner details */\r\n    function addPartner(bytes32 _partnerName,bytes32 _partnerLocation,bytes32 _roles,bytes32 _partnerStage,bytes32 _partnerHandle,address _partnerAddress) public onlyManufacturer(){\r\n        Partner memory _partner = Partner(_partnerName,_partnerLocation,_roles,_partnerStage,_partnerHandle,_partnerAddress);\r\n        partner.push(_partner);\r\n        PartnerAddressList[_partnerAddress]=_partner;\r\n    }\r\n    /*Verify partners Details */\r\n    function verifyPartner(address verifyPartnerAddress)public view returns(bytes32 _partnerName,bytes32 _partnerLocation,bytes32 _roles,bytes32 _partnerStage,bytes32 _partnerHandle,address _partnerAddress){\r\n        for(uint i;i<partner.length;i++){\r\n            if(partner[i]._partnerAddress == verifyPartnerAddress){\r\n                return(partner[i]._partnerName,partner[i]._partnerLocation,partner[i]._roles,partner[i]._partnerStage,partner[i]._partnerHandle,partner[i]._partnerAddress);\r\n            }\r\n        }\r\n    }\r\n    /*getAllPartners Details function */\r\n    function getAllPartners() public view returns (bytes32[] memory, bytes32[] memory,bytes32[] memory,bytes32[] memory,bytes32[] memory,address[] memory){\r\n        bytes32[] memory _partnerNames = new bytes32[](partner.length);\r\n        bytes32[] memory _partnerLocations = new bytes32[](partner.length);\r\n        bytes32[] memory _partnerRoles = new bytes32[](partner.length);\r\n        bytes32[] memory _partnerStages = new bytes32[](partner.length);\r\n        bytes32[] memory _partnerHandles = new bytes32[](partner.length);\r\n        address[] memory _partnerAddresses = new address[](partner.length);\r\n        \r\n        for(uint i=0;i<partner.length;i++){\r\n            _partnerNames[i]=partner[i]._partnerName;\r\n            _partnerLocations[i]=partner[i]._partnerLocation;\r\n            _partnerRoles[i]=partner[i]._roles;\r\n            _partnerStages[i]=partner[i]._partnerStage;\r\n            _partnerHandles[i]=partner[i]._partnerHandle;\r\n           _partnerAddresses[i]= partner[i]._partnerAddress;\r\n        }\r\n        return(_partnerNames,_partnerLocations,_partnerRoles,_partnerStages,_partnerHandles,_partnerAddresses);\r\n    }\r\n    /*Edit partners Details -- only Manufacturer will edit partner details */\r\n    function editPartner(bytes32 _partnerName,bytes32 _partnerLocation,bytes32 _roles,bytes32 _partnerStage,bytes32 _partnerHandle,address _partnerAddress) public onlyManufacturer(){\r\n        for(uint i;i<partner.length;i++){\r\n            if(partner[i]._partnerAddress==_partnerAddress){\r\n                partner[i]._partnerName = _partnerName;\r\n                partner[i]._partnerLocation = _partnerLocation;\r\n                partner[i]._roles = _roles;\r\n                partner[i]._partnerStage=_partnerStage;\r\n                partner[i]._partnerHandle=_partnerHandle;\r\n                partner[i]._partnerAddress = _partnerAddress;\r\n            }\r\n        }\r\n    }\r\n    /*Add Product Details -- only Manufacturer will add Product details */\r\n    function addProduct(\r\n        bytes32 _productName,\r\n        bytes32[] memory _productState,\r\n        bytes32[] memory _productTimeStamp,\r\n        address[] memory _partnerAddress,\r\n        bytes32[] memory _productHandle) public onlyManufacturer{\r\n            uint256 tempProductId = productUniqueId++;\r\n            Product memory _product =Product(tempProductId, _productName, _productState, _productTimeStamp, _partnerAddress, _productHandle);\r\n            product.push(_product);\r\n            ProductIdList[tempProductId]=_product;\r\n        }\r\n     /*verify product details */   \r\n    function verifyProduct(uint256 verifyProductId) public view returns(\r\n        bytes32 _productName,\r\n        bytes32[] memory _productState,\r\n        bytes32[] memory _productTimeStamp,\r\n        address[]memory _partnerAddress,\r\n        bytes32[]memory _productHandle) {\r\n            if(ProductIdList[verifyProductId]._productId==verifyProductId){\r\n            return(ProductIdList[verifyProductId]._productName, \r\n                ProductIdList[verifyProductId]._productState, \r\n                ProductIdList[verifyProductId]._productTimeStamp, \r\n                ProductIdList[verifyProductId]._partnerAddress, \r\n                ProductIdList[verifyProductId]._productHandle);\r\n        }\r\n    }\r\n        \r\n    /*update product details with productIdlist --onlypartners can update the products details  */\r\n    function updateProduct(uint256 _productId, bytes32 _productName, bytes32 _productState,bytes32 _productTimeStamp, address _partnerAddress, bytes32 _productHandle) public onlyPartners() {\r\n        ProductIdList[_productId]._productName = _productName;\r\n        (ProductIdList[_productId]._productState).push(_productState);\r\n        (ProductIdList[_productId]._productTimeStamp).push(_productTimeStamp);\r\n        (ProductIdList[_productId]._partnerAddress).push(_partnerAddress);\r\n        (ProductIdList[_productId]._productHandle).push(_productHandle);\r\n        \r\n        }\r\n        \r\n\r\n}",
  "sourcePath": "C:/Users/USER/Desktop/New folder/truffle_supplychain/supplychain/contracts/Supplychain.sol",
  "compiler": {
    "name": "solc",
    "version": "0.5.16+commit.9c3226ce.Emscripten.clang"
  },
  "schemaVersion": "3.2.2",
  "updatedAt": "2020-07-27T13:42:06.284Z",
  "networkType": "ethereum",
  "devdoc": {
    "methods": {}
  },
  "userdoc": {
    "methods": {}
  }
}